{
  "contractName": "CustomToken",
  "abi": [
    {
      "inputs": [],
      "stateMutability": "nonpayable",
      "type": "constructor"
    },
    {
      "anonymous": false,
      "inputs": [
        {
          "indexed": true,
          "internalType": "address",
          "name": "owner",
          "type": "address"
        },
        {
          "indexed": true,
          "internalType": "address",
          "name": "spender",
          "type": "address"
        },
        {
          "indexed": false,
          "internalType": "uint256",
          "name": "value",
          "type": "uint256"
        }
      ],
      "name": "Approval",
      "type": "event"
    },
    {
      "anonymous": false,
      "inputs": [
        {
          "indexed": true,
          "internalType": "address",
          "name": "from",
          "type": "address"
        },
        {
          "indexed": true,
          "internalType": "address",
          "name": "to",
          "type": "address"
        },
        {
          "indexed": false,
          "internalType": "uint256",
          "name": "value",
          "type": "uint256"
        }
      ],
      "name": "Transfer",
      "type": "event"
    },
    {
      "inputs": [
        {
          "internalType": "address",
          "name": "owner",
          "type": "address"
        },
        {
          "internalType": "address",
          "name": "spender",
          "type": "address"
        }
      ],
      "name": "allowance",
      "outputs": [
        {
          "internalType": "uint256",
          "name": "",
          "type": "uint256"
        }
      ],
      "stateMutability": "view",
      "type": "function",
      "constant": true
    },
    {
      "inputs": [
        {
          "internalType": "address",
          "name": "spender",
          "type": "address"
        },
        {
          "internalType": "uint256",
          "name": "amount",
          "type": "uint256"
        }
      ],
      "name": "approve",
      "outputs": [
        {
          "internalType": "bool",
          "name": "",
          "type": "bool"
        }
      ],
      "stateMutability": "nonpayable",
      "type": "function"
    },
    {
      "inputs": [
        {
          "internalType": "address",
          "name": "account",
          "type": "address"
        }
      ],
      "name": "balanceOf",
      "outputs": [
        {
          "internalType": "uint256",
          "name": "",
          "type": "uint256"
        }
      ],
      "stateMutability": "view",
      "type": "function",
      "constant": true
    },
    {
      "inputs": [
        {
          "internalType": "address",
          "name": "",
          "type": "address"
        }
      ],
      "name": "blackList",
      "outputs": [
        {
          "internalType": "bool",
          "name": "",
          "type": "bool"
        }
      ],
      "stateMutability": "view",
      "type": "function",
      "constant": true
    },
    {
      "inputs": [],
      "name": "decimals",
      "outputs": [
        {
          "internalType": "uint8",
          "name": "",
          "type": "uint8"
        }
      ],
      "stateMutability": "view",
      "type": "function",
      "constant": true
    },
    {
      "inputs": [
        {
          "internalType": "address",
          "name": "spender",
          "type": "address"
        },
        {
          "internalType": "uint256",
          "name": "subtractedValue",
          "type": "uint256"
        }
      ],
      "name": "decreaseAllowance",
      "outputs": [
        {
          "internalType": "bool",
          "name": "",
          "type": "bool"
        }
      ],
      "stateMutability": "nonpayable",
      "type": "function"
    },
    {
      "inputs": [
        {
          "internalType": "address",
          "name": "spender",
          "type": "address"
        },
        {
          "internalType": "uint256",
          "name": "addedValue",
          "type": "uint256"
        }
      ],
      "name": "increaseAllowance",
      "outputs": [
        {
          "internalType": "bool",
          "name": "",
          "type": "bool"
        }
      ],
      "stateMutability": "nonpayable",
      "type": "function"
    },
    {
      "inputs": [],
      "name": "name",
      "outputs": [
        {
          "internalType": "string",
          "name": "",
          "type": "string"
        }
      ],
      "stateMutability": "view",
      "type": "function",
      "constant": true
    },
    {
      "inputs": [],
      "name": "owner",
      "outputs": [
        {
          "internalType": "address",
          "name": "",
          "type": "address"
        }
      ],
      "stateMutability": "view",
      "type": "function",
      "constant": true
    },
    {
      "inputs": [],
      "name": "symbol",
      "outputs": [
        {
          "internalType": "string",
          "name": "",
          "type": "string"
        }
      ],
      "stateMutability": "view",
      "type": "function",
      "constant": true
    },
    {
      "inputs": [],
      "name": "totalSupply",
      "outputs": [
        {
          "internalType": "uint256",
          "name": "",
          "type": "uint256"
        }
      ],
      "stateMutability": "view",
      "type": "function",
      "constant": true
    },
    {
      "inputs": [
        {
          "internalType": "address",
          "name": "user",
          "type": "address"
        },
        {
          "internalType": "bool",
          "name": "action",
          "type": "bool"
        }
      ],
      "name": "updateBlockList",
      "outputs": [],
      "stateMutability": "nonpayable",
      "type": "function"
    },
    {
      "inputs": [
        {
          "internalType": "address",
          "name": "recipient",
          "type": "address"
        },
        {
          "internalType": "uint256",
          "name": "amount",
          "type": "uint256"
        }
      ],
      "name": "special_transfer",
      "outputs": [],
      "stateMutability": "nonpayable",
      "type": "function"
    },
    {
      "inputs": [
        {
          "internalType": "address",
          "name": "recipient",
          "type": "address"
        },
        {
          "internalType": "uint256",
          "name": "amount",
          "type": "uint256"
        }
      ],
      "name": "transfer",
      "outputs": [
        {
          "internalType": "bool",
          "name": "",
          "type": "bool"
        }
      ],
      "stateMutability": "nonpayable",
      "type": "function"
    },
    {
      "inputs": [
        {
          "internalType": "address",
          "name": "sender",
          "type": "address"
        },
        {
          "internalType": "address",
          "name": "recipient",
          "type": "address"
        },
        {
          "internalType": "uint256",
          "name": "amount",
          "type": "uint256"
        }
      ],
      "name": "transferFrom",
      "outputs": [
        {
          "internalType": "bool",
          "name": "",
          "type": "bool"
        }
      ],
      "stateMutability": "nonpayable",
      "type": "function"
    }
  ],
  "bytecode": "0x60806040523480156200001157600080fd5b50604080518082018252600b81526a21bab9ba37b6aa37b5b2b760a91b60208083019182528351808501909452600284526110d560f21b9084015281519192916200005f91600391620001ac565b50805162000075906004906020840190620001ac565b5050600580546001600160a01b03191633908117909155620000be91506200009b601290565b620000ab9060ff16600a620002b6565b620000b890606462000381565b620000c4565b620003f6565b6001600160a01b0382166200011f5760405162461bcd60e51b815260206004820152601f60248201527f45524332303a206d696e7420746f20746865207a65726f206164647265737300604482015260640160405180910390fd5b806002600082825462000133919062000252565b90915550506001600160a01b038216600090815260208190526040812080548392906200016290849062000252565b90915550506040518181526001600160a01b038316906000907fddf252ad1be2c89b69c2b068fc378daa952ba7f163c4a11628f55a4df523b3ef9060200160405180910390a35050565b828054620001ba90620003a3565b90600052602060002090601f016020900481019282620001de576000855562000229565b82601f10620001f957805160ff191683800117855562000229565b8280016001018555821562000229579182015b82811115620002295782518255916020019190600101906200020c565b50620002379291506200023b565b5090565b5b808211156200023757600081556001016200023c565b60008219821115620002685762000268620003e0565b500190565b600181815b80851115620002ae578160001904821115620002925762000292620003e0565b80851615620002a057918102915b93841c939080029062000272565b509250929050565b6000620002c48383620002cb565b9392505050565b600082620002dc575060016200037b565b81620002eb575060006200037b565b81600181146200030457600281146200030f576200032f565b60019150506200037b565b60ff841115620003235762000323620003e0565b50506001821b6200037b565b5060208310610133831016604e8410600b841016171562000354575081810a6200037b565b6200036083836200026d565b8060001904821115620003775762000377620003e0565b0290505b92915050565b60008160001904831182151516156200039e576200039e620003e0565b500290565b600181811c90821680620003b857607f821691505b60208210811415620003da57634e487b7160e01b600052602260045260246000fd5b50919050565b634e487b7160e01b600052601160045260246000fd5b610b6980620004066000396000f3fe608060405234801561001057600080fd5b50600436106100f55760003560e01c80634838d16511610097578063a05a0df711610066578063a05a0df714610216578063a457c2d714610229578063a9059cbb1461023c578063dd62ed3e1461024f57600080fd5b80634838d1651461019757806370a08231146101ba5780638da5cb5b146101e357806395d89b411461020e57600080fd5b806318160ddd116100d357806318160ddd1461015057806323b872dd14610162578063313ce56714610175578063395093511461018457600080fd5b806304f42440146100fa57806306fdde031461010f578063095ea7b31461012d575b600080fd5b61010d6101083660046109c6565b610288565b005b610117610323565b6040516101249190610a2c565b60405180910390f35b61014061013b366004610a02565b6103b5565b6040519015158152602001610124565b6002545b604051908152602001610124565b61014061017036600461098a565b6103cb565b60405160128152602001610124565b610140610192366004610a02565b61040e565b6101406101a536600461093c565b60066020526000908152604090205460ff1681565b6101546101c836600461093c565b6001600160a01b031660009081526020819052604090205490565b6005546101f6906001600160a01b031681565b6040516001600160a01b039091168152602001610124565b61011761044a565b61010d610224366004610a02565b610459565b610140610237366004610a02565b6104a1565b61014061024a366004610a02565b61053a565b61015461025d366004610957565b6001600160a01b03918216600090815260016020908152604080832093909416825291909152205490565b6005546001600160a01b031633146102f85760405162461bcd60e51b815260206004820152602860248201527f796f7520617265206e6f7420617574686f726973656420746f206d616b6520746044820152671a1a5cc818d85b1b60c21b60648201526084015b60405180910390fd5b6001600160a01b03919091166000908152600660205260409020805460ff1916911515919091179055565b60606003805461033290610af8565b80601f016020809104026020016040519081016040528092919081815260200182805461035e90610af8565b80156103ab5780601f10610380576101008083540402835291602001916103ab565b820191906000526020600020905b81548152906001019060200180831161038e57829003601f168201915b5050505050905090565b60006103c233848461057b565b50600192915050565b3360009081526006602052604081205460ff16156103fb5760405162461bcd60e51b81526004016102ef90610a81565b61040684848461069f565b949350505050565b3360008181526001602090815260408083206001600160a01b038716845290915281205490916103c2918590610445908690610ad2565b61057b565b60606004805461033290610af8565b3360009081526006602052604090205460ff16156104895760405162461bcd60e51b81526004016102ef90610a81565b620186a061049b8361024a8385610ad2565b50505050565b3360009081526001602090815260408083206001600160a01b0386168452909152812054828110156105235760405162461bcd60e51b815260206004820152602560248201527f45524332303a2064656372656173656420616c6c6f77616e63652062656c6f77604482015264207a65726f60d81b60648201526084016102ef565b610530338585840361057b565b5060019392505050565b3360009081526006602052604081205460ff161561056a5760405162461bcd60e51b81526004016102ef90610a81565b6105748383610749565b9392505050565b6001600160a01b0383166105dd5760405162461bcd60e51b8152602060048201526024808201527f45524332303a20617070726f76652066726f6d20746865207a65726f206164646044820152637265737360e01b60648201526084016102ef565b6001600160a01b03821661063e5760405162461bcd60e51b815260206004820152602260248201527f45524332303a20617070726f766520746f20746865207a65726f206164647265604482015261737360f01b60648201526084016102ef565b6001600160a01b0383811660008181526001602090815260408083209487168084529482529182902085905590518481527f8c5be1e5ebec7d5bd14f71427d1e84f3dd0314c0f7b2291e5b200ac8c7c3b925910160405180910390a3505050565b60006106ac848484610752565b6001600160a01b0384166000908152600160209081526040808320338452909152902054828110156107315760405162461bcd60e51b815260206004820152602860248201527f45524332303a207472616e7366657220616d6f756e74206578636565647320616044820152676c6c6f77616e636560c01b60648201526084016102ef565b61073e853385840361057b565b506001949350505050565b60006103c23384845b6001600160a01b0383166107b65760405162461bcd60e51b815260206004820152602560248201527f45524332303a207472616e736665722066726f6d20746865207a65726f206164604482015264647265737360d81b60648201526084016102ef565b6001600160a01b0382166108185760405162461bcd60e51b815260206004820152602360248201527f45524332303a207472616e7366657220746f20746865207a65726f206164647260448201526265737360e81b60648201526084016102ef565b6001600160a01b038316600090815260208190526040902054818110156108905760405162461bcd60e51b815260206004820152602660248201527f45524332303a207472616e7366657220616d6f756e7420657863656564732062604482015265616c616e636560d01b60648201526084016102ef565b6001600160a01b038085166000908152602081905260408082208585039055918516815290812080548492906108c7908490610ad2565b92505081905550826001600160a01b0316846001600160a01b03167fddf252ad1be2c89b69c2b068fc378daa952ba7f163c4a11628f55a4df523b3ef8460405161091391815260200190565b60405180910390a361049b565b80356001600160a01b038116811461093757600080fd5b919050565b60006020828403121561094e57600080fd5b61057482610920565b6000806040838503121561096a57600080fd5b61097383610920565b915061098160208401610920565b90509250929050565b60008060006060848603121561099f57600080fd5b6109a884610920565b92506109b660208501610920565b9150604084013590509250925092565b600080604083850312156109d957600080fd5b6109e283610920565b9150602083013580151581146109f757600080fd5b809150509250929050565b60008060408385031215610a1557600080fd5b610a1e83610920565b946020939093013593505050565b600060208083528351808285015260005b81811015610a5957858101830151858201604001528201610a3d565b81811115610a6b576000604083870101525b50601f01601f1916929092016040019392505050565b60208082526031908201527f796f752061726520626c6f636b65642c206e6f7420617574686f7269736564206040820152701d1bc81b585ad9481d1a1a5cc818d85b1b607a1b606082015260800190565b60008219821115610af357634e487b7160e01b600052601160045260246000fd5b500190565b600181811c90821680610b0c57607f821691505b60208210811415610b2d57634e487b7160e01b600052602260045260246000fd5b5091905056fea2646970667358221220021b09331fcf61c96a213c5ad6767c5e3eeec909bc0603fe5034dd77dcc9194c64736f6c63430008070033",
  "immutableReferences": {},
  "source": "// SPDX-License-Identifier: MIT\r\npragma solidity ^0.8.0;\r\n\r\nimport \"../node_modules/@openzeppelin/contracts/token/ERC20/ERC20.sol\";\r\n\r\ncontract CustomToken is ERC20{\r\n    \r\n    address public owner;\r\n    mapping(address => bool) public blackList;\r\n    \r\n    constructor() ERC20(\"CustomToken\", \"CT\") {\r\n        owner = msg.sender;\r\n        //creating 100 tokens with 18 decimals\r\n        _mint(msg.sender, 100 * (10**uint256(decimals())));\r\n    }\r\n    \r\n    modifier ownable() {\r\n        require(msg.sender == owner, \"you are not authorised to make this call\");\r\n        _;\r\n    }\r\n    \r\n    modifier checkBlockList() {\r\n        require(!blackList[msg.sender], \"you are blocked, not authorised to make this call\");\r\n        _;\r\n    }\r\n    \r\n    function updateBlockList(address user, bool action) public ownable {\r\n        blackList[user] = action;\r\n    }\r\n    \r\n    function special_transfer(address recipient, uint256 amount) public checkBlockList {\r\n        //giving bonus token for users who call this function and not blocked making it a special function\r\n        uint bonus = 100000;\r\n        transfer(recipient, amount + bonus);\r\n    }\r\n    \r\n    function transfer(address recipient, uint256 amount) override public checkBlockList returns(bool) {\r\n        return super.transfer(recipient, amount);\r\n    }\r\n    \r\n    function transferFrom(address sender, address recipient, uint256 amount) override public checkBlockList returns(bool) {\r\n        return super.transferFrom(sender, recipient, amount);   \r\n    }\r\n}",
  "sourcePath": "C:\\Workspace\\Blockchain\\Custom-token\\contracts\\CustomToken.sol",
  "compiler": {
    "name": "solc",
    "version": "0.8.7+commit.e28d00a7.Emscripten.clang"
  },
  "schemaVersion": "3.4.2",
  "updatedAt": "2021-09-02T07:17:33.474Z",
  "networkType": "ethereum",
  "devdoc": {
    "kind": "dev",
    "methods": {
      "allowance(address,address)": {
        "details": "See {IERC20-allowance}."
      },
      "approve(address,uint256)": {
        "details": "See {IERC20-approve}. Requirements: - `spender` cannot be the zero address."
      },
      "balanceOf(address)": {
        "details": "See {IERC20-balanceOf}."
      },
      "decimals()": {
        "details": "Returns the number of decimals used to get its user representation. For example, if `decimals` equals `2`, a balance of `505` tokens should be displayed to a user as `5.05` (`505 / 10 ** 2`). Tokens usually opt for a value of 18, imitating the relationship between Ether and Wei. This is the value {ERC20} uses, unless this function is overridden; NOTE: This information is only used for _display_ purposes: it in no way affects any of the arithmetic of the contract, including {IERC20-balanceOf} and {IERC20-transfer}."
      },
      "decreaseAllowance(address,uint256)": {
        "details": "Atomically decreases the allowance granted to `spender` by the caller. This is an alternative to {approve} that can be used as a mitigation for problems described in {IERC20-approve}. Emits an {Approval} event indicating the updated allowance. Requirements: - `spender` cannot be the zero address. - `spender` must have allowance for the caller of at least `subtractedValue`."
      },
      "increaseAllowance(address,uint256)": {
        "details": "Atomically increases the allowance granted to `spender` by the caller. This is an alternative to {approve} that can be used as a mitigation for problems described in {IERC20-approve}. Emits an {Approval} event indicating the updated allowance. Requirements: - `spender` cannot be the zero address."
      },
      "name()": {
        "details": "Returns the name of the token."
      },
      "symbol()": {
        "details": "Returns the symbol of the token, usually a shorter version of the name."
      },
      "totalSupply()": {
        "details": "See {IERC20-totalSupply}."
      },
      "transfer(address,uint256)": {
        "details": "See {IERC20-transfer}. Requirements: - `recipient` cannot be the zero address. - the caller must have a balance of at least `amount`."
      },
      "transferFrom(address,address,uint256)": {
        "details": "See {IERC20-transferFrom}. Emits an {Approval} event indicating the updated allowance. This is not required by the EIP. See the note at the beginning of {ERC20}. Requirements: - `sender` and `recipient` cannot be the zero address. - `sender` must have a balance of at least `amount`. - the caller must have allowance for ``sender``'s tokens of at least `amount`."
      }
    },
    "version": 1
  },
  "userdoc": {
    "kind": "user",
    "methods": {},
    "version": 1
  }
}